S0250000683270643130313132345F50726F6A6563745F31335F31315F323032342E7372656387
S11300000C9460010C94FD010C943B020C947D0152
S11300100C947D010C947D010C947D010C947D0164
S11300200C947D010C947D010C947D010C947D0154
S11300300C947D010C947D010C947D010C947D0144
S11300400C947D010C947D010C947D010C947D0134
S11300500C947D010C947D010C947D010C947D0124
S11300600C947D010C947D010C947D010C947D0114
S11300700C94C8070C947D010C947D010C947D01B3
S11300800C947D010C947D010C947D010C947D01F4
S11300900C947D010C947D010C947D010C947D01E4
S11300A00C947D010C947D010C947D010C947D01D4
S11300B00C947D01000000000081811881810007FB
S11300C0000700147F147F14242A7F2A12231308A4
S11300D0646236495522500005030000001C224189
S11300E0000041221C0014083E081408083E0808B9
S11300F00050300000080808080800606000002074
S1130100100804023E5149453E00427F40004261CE
S11301105149462141454B311814127F102745455A
S113012045393C4A49493001710905033649494971
S113013036064949291E00363600000056360000AE
S11301400814224100141414141400412214080247
S113015001510906324979413E7E1111117E7F49D0
S11301604949363E414141227F4141221C7F494950
S113017049417F090909013E4149497A7F08080834
S11301807F00417F41002040413F017F081422410C
S11301907F404040407F020C027F7F0408107F3E76
S11301A04141413E7F090909063E4151215E7F09D3
S11301B0192946464949493101017F01013F40401F
S11301C0403F1F2040201F3F4038403F6314081425
S11301D06307087008076151494543007F414100A6
S11301E002040810200041417F000402010204407F
S11301F040404040000102040020545454787F4899
S11302004444383844444420384444487F3854549F
S11302105418087E0901020C5252523E7F0804040D
S11302207800447D40002040443D007F1028440075
S113023000417F40007C041804787C08040478386A
S1130240444444387C14141408081414147C7C08A2
S11302500404084854545420043F4440203C404083
S1130260207C1C2040201C3C4030403C442810286A
S1130270440C5050503C4464544C440008364100F3
S113028000007F0000004136080010080810080034
S11302900000000011AE00A8013F2001004000D37F
S11302A00100A100C800DA011281017FA400A600A8
S11302B0D50180D901C2DB01208D01142E00AF00CD
S11302C011241FBECFEFD8E0DEBFCDBF12E0A0E007
S11302D0B1E0E6EFFEE102C005900D92AA35B10748
S11302E0D9F722E0AAE5B2E001C01D92A83CB2070A
S11302F0E1F70E949E090C94790F0C940000CF93AF
S1130300DF9300D0CDB7DEB79A83898300000F90C6
S11303100F90DF91CF910895CF93DF9300D000D059
S1130320CDB7DEB789837B836A834C83898182302E
S113033008F05BC08981882F90E0880F991F880F8F
S1130340991F80509F4FFC01808191818F5791406C
S113035011F080E04BC08981882F90E0009719F05C
S11303600197B9F032C089E690E029E630E0F9015E
S11303702081322F3C7F2C81232BFC0120838DE3B1
S113038090E02DE330E0F90120812160FC0120831D
S11303901CC089E690E029E630E0F9012081422F73
S11303A0437F2C81222F30E0220F331F220F331F73
S11303B0242BFC0120838DE390E02DE330E0F90150
S11303C020812260FC01208300008981882F90E035
S11303D0880F991F880F991F80509F4F2A813B8156
S11303E0FC013183208381E001C080E00F900F90F5
S11303F00F900F90DF91CF9108951F920F9200906C
S11304005F000F9211242F933F934F935F936F9349
S11304107F938F939F93AF93BF93EF93FF93CF9368
S1130420DF93CDB7DEB7809102019091030101966D
S11304309093030180930201209100013091010106
S11304408091020190910301F90109950000DF9167
S1130450CF91FF91EF91BF91AF919F918F917F9138
S11304606F915F914F913F912F910F9000925F0098
S11304700F901F9018951F920F9200905F000F929B
S113048011242F933F934F935F936F937F938F9395
S11304909F93AF93BF93EF93FF93CF93DF93CDB726
S11304A0DEB78091060190910701019690930701B0
S11304B08093060120910401309105018091060189
S11304C090910701F90109950000DF91CF91FF9107
S11304D0EF91BF91AF919F918F917F916F915F91B8
S11304E04F913F912F910F9000925F000F901F90BA
S11304F01895CF93DF9300D0CDB7DEB78A838FEF03
S113050089830E945E0689838981882311F0898109
S11305100AC08A810E94950689838981882311F003
S1130520898101C080E00F900F90DF91CF910895F1
S1130530CF93DF9300D0CDB7DEB78A838FEF898363
S113054080E80E94C20689838981882311F0898109
S11305500AC08A810E94C20689838981882311F096
S1130560898101C080E00F900F90DF91CF910895B1
S1130570CF93DF93CDB7DEB7A0970FB6F894DEBF65
S11305800FBECDBF88A384E992E09A8389838FEF5D
S11305908D8389819A819C012F5F3F4F3A83298300
S11305A09F838E838E819F81FC01849188878885B7
S11305B08C830E943C0688A10E9479028D838D81E0
S11305C0882311F08D81CBC084EE0E9498028D8324
S11305D08D81882311F08D81C2C080E090E0A0E875
S11305E0BFE38A8B9B8BAC8BBD8B20E030E04AE76A
S11305F053E46A897B898C899D890E94B40BDC0150
S1130600CB018E8B9F8BA88FB98F20E030E040E820
S11306105FE36E897F89888D998D0E942E0B8823D4
S11306202CF481E090E09B8F8A8F3FC020E03FEF65
S11306304FE757E46E897F89888D998D0E94AF0BAF
S113064018164CF520E030E040E251E46A897B89D9
S11306508C899D890E94B40BDC01CB01BC01CD01C6
S11306600E94330BDC01CB019B8F8A8F0FC089E181
S113067090E09D8F8C8F8C8D9D8D0197F1F79D8FD0
S11306808C8F8A8D9B8D01979B8F8A8F8A8D9B8DF2
S1130690892B69F714C06E897F89888D998D0E9492
S11306A0330BDC01CB019B8F8A8F8A8D9B8D9F8FAF
S11306B08E8F8E8D9F8D0197F1F79F8F8E8F45C002
S11306C089819A819C012F5F3F4F3A8329839A87BE
S11306D0898789859A85FC0184918B878B850E9403
S11306E098028D838D81882311F08D8138C0898192
S11306F09A819C012F5F3F4F3A8329839D878C8782
S11307008C859D85FC0184918E878E858B8317C093
S113071089819A819C012F5F3F4F3A832983988B6B
S11307208F878F859889FC018491898B89890E94A0
S113073098028D838D81882311F08D8110C08B8167
S11307409FEF980F9B83882319F78C819FEF980F55
S11307509C83882309F0B4CF0E94EE0680E0A09623
S11307600FB6F894DEBF0FBECDBFDF91CF910895D1
S1130770CF93DF9300D01F92CDB7DEB78FEF8B837B
S11307808CE30E9479028B838B81882311F08B8107
S113079060C081E20E9498028B838B81882311F0D0
S11307A08B8157C080E00E9498028B838B818823C1
S11307B011F08B814EC08FE70E9498028B838B814E
S11307C0882311F08B8145C010925B0210925A026B
S11307D082E20E9498028B838B81882311F08B81A3
S11307E038C080E00E9498028B838B81882311F0AB
S11307F08B812FC087E00E9498028B838B81882392
S113080011F08B8126C010925D0210925C0280E48C
S11308100E94C2068B838B81882311F08B8119C0BF
S11308201A8219820EC080E00E94C2068B838B81DB
S1130830882311F08B810DC089819A8101969A8356
S1130840898389819A818115944068F30E94EE0618
S113085080E00F900F900F90DF91CF910895CF9388
S1130860DF9300D000D01F92CDB7DEB78A836B83AD
S11308704C832D838FEF89838CE30E9479028983D3
S11308808981882311F0898147C081E20E949802FE
S113089089838981882311F089813EC08A810E94DD
S11308A0980289838981882311F0898135C08B81DD
S11308B00E94980289838981882311F089812CC040
S11308C08A81882F90E090935B0280935A0282E29F
S11308D00E94980289838981882311F089811CC030
S11308E08C810E94980289838981882311F08981EF
S11308F013C08D810E94980289838981882311F015
S113090089810AC08C81882F90E090935D02809346
S11309105C020E94EE0680E00F900F900F900F9003
S11309200F90DF91CF910895CF93DF9300D000D043
S11309301F92CDB7DEB78C836D838FEF89838FE7EA
S11309408A8387E08B832B814D816A818C810E940D
S11309502F0489838981882311F0898101C080E073
S11309600F900F900F900F900F90DF91CF910895FB
S1130970CF93DF9300D01F92CDB7DEB78A836B830A
S11309808FEF89838A8188234CF58B81873008F522
S113099082E090E090935B0280935A0280915C0223
S11309A090915D02019690935D0280935C02809128
S11309B05C0290915D02282F80915A0290915B0213
S11309C0622F0E94940489838981882311F089818C
S11309D006C08B81873010F081E001C080E00F9069
S11309E00F900F90DF91CF910895CF93DF93CDB700
S11309F0DEB72E970FB6F894DEBF0FBECDBF8D873E
S1130A006E878FEF8B8319821A828E85882F90E0F0
S1130A108F709927892B09F068C08E85882F90E004
S1130A20807F9927892B11F080E88A8380915A026C
S1130A3090915B028B5F8C8380915C0290915D024C
S1130A408D836D818C810E94B8048B838B81882374
S1130A5011F08B81DBC08CE30E9479028B838B8144
S1130A60882311F08B81D2C080E40E94C2068B835C
S1130A708B818823B1F18B81C9C08D85882F90E04B
S1130A809C0120523109898191E0980F9983482F64
S1130A9050E0C901880F991F880F991F820F931F77
S1130AA0840F951F8C549F4F9F838E838E819F81CB
S1130AB0FC01849188878885898799858A81892B17
S1130AC00E94C2068B838B81882311F08B819EC088
S1130AD080915A0290915B02019690935B028093FD
S1130AE05A028981853048F27CC08E85882F90E037
S1130AF08F709927019709F074C08E85882F90E034
S1130B00807F9927892B11F080E88A8380915A028B
S1130B1090915B02865F8C8380915C0290915D0270
S1130B208D836D818C810E94B8048B838B81882393
S1130B3011F08B816BC08CE30E9479028B838B81D3
S1130B40882311F08B8162C080E40E94C2068B83EB
S1130B508B81882309F441C08B8158C08D85882FEF
S1130B6090E09C0120523109898191E0980F99838A
S1130B70482F50E0C901880F991F880F991F820FD1
S1130B80931F840F951F8C549F4F9B878A878A8558
S1130B909B85FC0184918C878C85898799858A81C2
S1130BA0892B0E94C2068B838B81882311F08B8151
S1130BB02DC099858A81892B0E94C2068B838B81E3
S1130BC0882311F08B8122C080915A0290915B029C
S1130BD0029690935B0280935A028981853008F4CF
S1130BE0BDCF8A810E94C2068B838B81882311F03A
S1130BF08B810CC080915A0290915B020196909374
S1130C005B0280935A020E94EE0680E02E960FB695
S1130C10F894DEBF0FBECDBFDF91CF910895CF937F
S1130C20DF9300D000D0CDB7DEB79B838A836C837B
S1130C3019820FC0898191E0980F9983882F90E0E1
S1130C402A813B81820F931FFC0180816C810E9469
S1130C50F5048981882F90E02A813B81820F931FBC
S1130C60FC018081882331F780E00F900F900F9072
S1130C700F90DF91CF910895CF93DF93CDB7DEB777
S1130C8088EB90E022E0FC01208389EB90E0FC01FA
S1130C908081882F90E082709927AC01416089EBB4
S1130CA090E029EB30E0F9012081322F242F232B0F
S1130CB0FC0120830000DF91CF910895CF93DF934F
S1130CC0CDB7DEB789EB90E029EB30E0F901208164
S1130CD02775FC0120838CEB90E024EAFC0120833F
S1130CE000008CEB90E0FC0180818823D4F789EB31
S1130CF090E0FC018081882F90E0887F99270897F5
S1130D0081F089EB90E0FC018081882F90E0887F5E
S1130D109927409731F089EB90E0FC018081887F2E
S1130D2001C080E0DF91CF910895CF93DF931F92AC
S1130D30CDB7DEB789838BEB90E02981220FFC01CC
S1130D4020838CEB90E024E8FC01208300008CEBF2
S1130D5090E0FC0180818823D4F789EB90E0FC01CA
S1130D608081882F90E0887F9927489731F089EB1C
S1130D7090E0FC018081887F01C080E00F90DF91CA
S1130D80CF910895CF93DF931F92CDB7DEB78983B8
S1130D908BEB90E02981FC0120838CEB90E024E82C
S1130DA0FC01208300008CEB90E0FC01808188230F
S1130DB0D4F789EB90E0FC018081882F90E0887F54
S1130DC09927889731F089EB90E0FC018081887F36
S1130DD001C080E00F90DF91CF910895CF93DF930E
S1130DE0CDB7DEB78CEB90E024E9FC012083000052
S1130DF0DF91CF910895CF93DF9300D0CDB7DEB7C5
S1130E009A83898389819A8190935F0280935E0299
S1130E1000000F900F90DF91CF910895CF93DF934F
S1130E20CDB7DEB78CEC90E027E6FC0120838DEC97
S1130E3090E0FC01108288EC90E0FC01108289ECC7
S1130E4090E028E1FC0120838AEC90E026E0FC019C
S1130E5020830E9431070E943F070000DF91CF9159
S1130E600895CF93DF93CDB7DEB788E091E09093F8
S1130E70C5028093C4020000DF91CF910895CF93FF
S1130E80DF93CDB7DEB786E191E09093C302809300
S1130E90C2020000DF91CF910895CF93DF9300D079
S1130EA0CDB7DEB79A838983000088EC90E0FC011B
S1130EB080818823D4F78EEC90E0FC018081882F18
S1130EC090E00F900F90DF91CF910895CF93DF932F
S1130ED000D01F92CDB7DEB789837B836A8300007D
S1130EE088EC90E0FC018081882F90E08072992743
S1130EF0892BB1F38EEC90E02981FC01208380E002
S1130F0090E00F900F900F90DF91CF910895CF93C1
S1130F10DF93CDB7DEB789EC90E029EC30E0F9013E
S1130F2020812068FC0120830000DF91CF91089587
S1130F30CF93DF9300D0CDB7DEB79A8389838981BD
S1130F409A81FC018081813430F089819A81FC018D
S1130F5080818E3560F089819A81FC01808181369F
S1130F6088F089819A81FC0180818E3758F48981C7
S1130F709A81FC01908180E2292F282789819A8116
S1130F80FC01208300000F900F90DF91CF91089512
S1130F901F920F9200905F000F9211242F933F93A2
S1130FA04F935F936F937F938F939F93AF93BF936D
S1130FB0EF93FF93CF93DF931F92CDB7DEB78EEC01
S1130FC090E0FC018081898320915E0230915F0270
S1130FD08981F9010995CE0101960E9498078EEC4A
S1130FE090E02981FC012083789400000F90DF9128
S1130FF0CF91FF91EF91BF91AF919F918F917F918D
S11310006F915F914F913F912F910F9000925F00EC
S11310100F901F901895CF93DF931F92CDB7DEB733
S113102089838091A202882F90E001968F73907833
S1131030992324F40197806C9F6F01969C01809101
S1131040A302882F90E02817390729F58091A3027D
S1131050882F90E08E599D4FFC0180818093A702D8
S113106081E08093A6028091A4029091A50201964A
S11310709093A5028093A4028091A302882F90E00C
S113108001968F739078992324F40197806C9F6F55
S113109001968093A3028091A202882F90E08E593A
S11310A09D4F2981FC0120838091A202882F90E02A
S11310B001968F739078992324F40197806C9F6F25
S11310C001968093A20281E08093600200000F9059
S11310D0DF91CF910895CF93DF9300D000D0CDB7A7
S11310E0DEB79A8389837C836B838091610291E06C
S11310F0980F90936102682F80E00E9494048B8182
S11311009C8160E00E940F0689819A8160E00E94C0
S11311100F068091610287708093610200000F9036
S11311200F900F900F90DF91CF910895CF93DF939D
S11311301F92CDB7DEB79091A3028091A2029817B7
S113114011F480E019C08091A302882F90E08E5999
S11311509D4FFC01808189838091A302882F90E0B8
S113116001968F739078992324F40197806C9F6F74
S113117001968093A30289810F90DF91CF91089506
S1131180CF93DF93CDB7DEB71092BD021092AD02BC
S11311900000DF91CF910895CF93DF9300D0CDB7B6
S11311A0DEB79A8389832BC089819A81FC0180816F
S11311B0803330F089819A81FC0180818A33D0F0B8
S11311C089819A81FC018081813430F089819A81FE
S11311D0FC018081873470F089819A81FC018081CF
S11311E0813630F089819A81FC018081873610F044
S11311F080E00CC089819A8101969A8389838981D0
S11312009A81FC018081882379F681E00F900F9008
S1131210DF91CF910895CF93DF9300D000D000D019
S1131220CDB7DEB79C838B836D834E838B819C818A
S113123001979A8389838E81882359F18B819C81BC
S1131240FC018081482F8D81282F30E081E090E0DF
S113125002C0880F991F2A95E2F7842B282F8B81CF
S11312609C81FC01208389819A81FC018081482F23
S11312708D81282F30E081E090E002C0880F991F13
S11312802A95E2F7842B282F89819A81FC012083F7
S11312902CC08B819C81FC018081482F8D81282F5B
S11312A030E081E090E002C0880F991F2A95E2F7B0
S11312B080958423282F8B819C81FC012083898144
S11312C09A81FC018081482F8D81282F30E081E0B4
S11312D090E002C0880F991F2A95E2F78095842335
S11312E0282F89819A81FC012083000026960FB65D
S11312F0F894DEBF0FBECDBFDF91CF910895CF9399
S1131300DF9300D0CDB7DEB79A8389838091A8029A
S11313109091A90201969093A9028093A8028981D1
S11313209A819093AB028093AA0281E08093AC02ED
S113133000000F900F90DF91CF910895CF93DF932A
S1131340CDB7DEB7A3970FB6F894DEBF0FBECDBFFF
S113135019828BE098E00E94FB060E940E070E940F
S113136087077894809124010E94B8020E94B803F0
S113137042E06FE779E080E00E948C018091600296
S1131380882309F4ECC0109260020E9496088A83B4
S11313908A818A3309F0C1C08DEA92E00E94CC08A8
S11313A0882309F4A3C08981882F90E081309105B6
S11313B0C1F18230910509F456C0892B09F083C02C
S11313C08DEA92E0892F8F938DEA92E08F9385E3E3
S11313D091E0892F8F9385E391E08F930E94490CCC
S11313E00F900F900F900F906FE371E08DEA92E0F1
S11313F00E946B0881E089838091AD02882F90E080
S1131400C097982F9295907F8091AE02890F805358
S11314108B838B81882F90E09093C0028093BF02CE
S113142079C08DEA92E0892F8F938DEA92E08F93B1
S113143086E491E0892F8F9386E491E08F930E9454
S1131440490C0F900F900F900F9062E571E08DEAB8
S113145092E00E946B0882E089838091AD02805300
S11314608093BE0257C08DEA92E0892F8F938DEA54
S113147092E08F938BE591E0892F8F938BE591E038
S11314808F930E94490C0F900F900F900F9067E676
S113149071E08DEA92E00E946B0819829091AD028E
S11314A081E0913309F080E08093C1023091C10260
S11314B02091BE028091BF029091C002432F622FFF
S11314C00E940B0927C080E791E00E945F0C6FE740
S11314D071E083E891E00E946B08198262E971E08F
S11314E083E991E00E946B08000014C08DEA92E049
S11314F0892F8F938DEA92E08F9382EA91E0892F6E
S11315008F9382EA91E08F930E94490C0F900F9081
S11315100F900F900E94C00822C08091BD028F30AE
S1131520C0F48091BD02982F9F5F9093BD02082E56
S1131530000C990B83559D4F2A81FC0120838091D7
S1131540BD02082E000C990B83559D4FFC0110829F
S113155006C08AEB91E00E945F0C0E94C008809153
S1131560AC02882309F44AC01092AC028091A8020C
S11315709091A902292F2F938F9382EE91E0892FC6
S11315808F9382EE91E08F93CE010496292F2F93AF
S11315908F930E948F0C0F900F900F900F900F90CD
S11315A00F908091610291E0980F90936102682FEF
S11315B080E00E94940460E085EE91E00E940F06B2
S11315C0CE01049660E00E940F068091610287704C
S11315D0809361028091A8029091A902292F2F93F0
S11315E08F938CEE91E0892F8F938CEE91E08F9303
S11315F00E94490C0F900F900F900F908091A602BB
S1131600882309F4BBCE1092A6028091A702882FEA
S113161090E0292F2F938F9385E192E0892F8F9368
S113162085E192E08F930E94490C0F900F900F90E8
S11316300F908091A4029091A502292F2F938F934C
S113164087E392E0892F8F9387E392E08F930E9440
S1131650490C0F900F900F900F9090CE0E94620B48
S113166008F481E008950E948E0B88F09F5798F04B
S1131670B92F9927B751B0F0E1F0660F771F881F93
S1131680991F1AF0BA95C9F714C0B13091F00E94AD
S1131690A80BB1E008950C94A80B672F782F882726
S11316A0B85F39F0B93FCCF3869577956795B395D4
S11316B0D9F73EF490958095709561957F4F8F4F43
S11316C09F4F0895990F0008550FAA0BE0E8FEEF0D
S11316D016161706E807F907C0F012161306E407F2
S11316E0F50798F0621B730B840B950B39F40A26EB
S11316F061F0232B242B252B21F408950A2609F4C9
S1131700A140A6958FEF811D811D089557FD905826
S1131710440F551F59F05F3F71F04795880F97FBB1
S1131720991F61F09F3F79F087950895121613066B
S11317301406551FF2CF4695F1DF08C0161617069A
S11317401806991FF1CF86957105610508940895CF
S1131750E894BB2766277727CB0197F908950E9461
S1131760620B08F48FEF08950E94C70B0C94380C99
S11317700E942A0C38F00E94310C20F0952311F0BD
S11317800C94210C0C94270C11240C94A90B0E948A
S1131790860B70F3959FC1F3950F50E0551F629F20
S11317A0F001729FBB27F00DB11D639FAA27F00DB6
S11317B0B11DAA1F649F6627B00DA11D661F829FDD
S11317C02227B00DA11D621F739FB00DA11D621FC2
S11317D0839FA00D611D221F749F3327A00D611DDF
S11317E0231F849F600D211D822F762F6A2F1124C1
S11317F09F5750409AF0F1F088234AF0EE0FFF1FF4
S1131800BB1F661F771F881F91505040A9F79E3F4A
S1131810510580F00C94210C0C94A90B5F3FE4F368
S1131820983ED4F3869577956795B795F795E795A0
S11318309F5FC1F7FE2B880F911D9695879597F9A9
S1131840089597F99F6780E870E060E008959FEF3E
S113185080EC089500240A94161617061806090643
S1131860089500240A941216130614060506089512
S1131870092E0394000C11F4882352F0BB0F40F49A
S1131880BF2B11F460FF04C06F5F7F4F8F4F9F4FDA
S11318900895A0E0B0E0EFE4FCE00C94520FAE0138
S11318A04B5F5F4FFA0161917191AF018091C40266
S11318B09091C5020E94B10CE2E00C946E0F0F935C
S11318C01F93CF93DF93E091C402F091C50223816B
S11318D021FF1BC08C01D0E0C0E0F80181918F0191
S11318E06091C4027091C502DB011896ED91FC91E0
S11318F01997882331F00995892B79F3DFEFCFEF1E
S1131900ECCF8AE00995892B19F08FEF9FEF02C085
S11319108D2F9C2FDF91CF911F910F910895AEE0F1
S1131920B0E0E5E9FCE00C94500F0D891E8986E0D7
S11319308C831A8309838FEF9FE79E838D83AE0187
S1131940475E5F4F6F89788DCE0101960E94B10C7E
S1131950EF81F885E00FF11F10822E96E4E00C94DD
S11319606C0FABE0B0E0E7EBFCE00C94420F6C01D1
S11319707B018A01FC0117821682838181FFCCC11D
S1131980CE0101963C01F6019381F70193FD859107
S113199093FF81917F01882309F4BAC1853239F418
S11319A093FD859193FF81917F01853229F4B601DE
S11319B090E00E94A80EE7CF912C212C312CFFE15E
S11319C0F315D8F08B3279F038F4803279F0833221
S11319D0A1F4232D20611DC08D3261F0803369F4A0
S11319E0232D216016C0832D8260382EE32DE46000
S11319F03E2E2AC0F32DF8601DC037FC2DC020ED0B
S1131A00280F2A3040F08E32B9F436FC81C1232DE0
S1131A102064322E19C036FE06C08AE0989E200D3E
S1131A201124922E11C0EAE02E9E200D1124222EA4
S1131A30F32DF0623F2E08C08C3621F4832D80688C
S1131A40382E02C0883641F4F70193FD859193FF47
S1131A5081917F018111B3CF982F9F7D955493304D
S1131A6028F40C5F1F4F9FE399830DC0833631F038
S1131A70833771F0833509F059C021C0F8018081A2
S1131A8089830E5F1F4F88248394912C530113C0C4
S1131A902801F2E04F0E511CF801A080B18036FEFF
S1131AA003C0692D70E002C06FEF7FEFC5010E9493
S1131AB09D0E4C018201F32DFF773F2E16C02801A5
S1131AC022E0420E511CF801A080B18036FE03C012
S1131AD0692D70E002C06FEF7FEFC5010E94920E86
S1131AE04C01F32DF0683F2E820133FC1BC0822D84
S1131AF090E088169906B0F4B60180E290E00E9466
S1131B00A80E2A94F4CFF50137FC859137FE819114
S1131B105F01B60190E00E94A80E21102A9421E0F2
S1131B20821A91088114910471F7E8C0843611F087
S1131B30893641F5F80137FE07C0608171818281E1
S1131B4093810C5F1F4F08C060817181072E000CC8
S1131B50880B990B0E5F1F4FF32DFF763F2E97FFD7
S1131B6009C090958095709561957F4F8F4F9F4FD9
S1131B70F0683F2E2AE030E0A3010E94E40E882E94
S1131B80861845C0853731F4232D2F7EB22E2AE0E6
S1131B9030E025C0932D997FB92E8F36C1F018F40B
S1131BA0883579F0B5C0803719F0883721F0B0C096
S1131BB0E92FE061BE2EB4FE0DC0FB2DF460BF2EF4
S1131BC009C034FE0AC0292F2660B22E06C028E0C0
S1131BD030E005C020E130E002C020E132E0F8014D
S1131BE0B7FE07C060817181828193810C5F1F4FB2
S1131BF006C06081718180E090E00E5F1F4FA301F9
S1131C000E94E40E882E8618FB2DFF773F2E36FEA9
S1131C100DC0232D2E7FA22E891458F434FE0BC040
S1131C2032FC09C0832D8E7EA82E05C0B82CA32CAF
S1131C3003C0B82C01C0B92CA4FE0FC0FE01E80DEE
S1131C40F11D8081803321F49A2D997EA92E09C03B
S1131C50A2FE06C0B394B39404C08A2D867809F01A
S1131C60B394A3FC11C0A0FE06C0B21488F4280CDF
S1131C70922C9B180EC0B21460F4B60180E290E07E
S1131C800E94A80EB394F7CFB21418F42B1802C014
S1131C90982C212CA4FE10C0B60180E390E00E9491
S1131CA0A80EA2FE17C0A1FC03C088E790E002C002
S1131CB088E590E0B6010CC08A2D867859F0A1FE23
S1131CC002C08BE201C080E2A7FC8DE2B60190E085
S1131CD00E94A80E891438F4B60180E390E00E94B3
S1131CE0A80E9A94F7CF8A94F301E80DF11D808130
S1131CF0B60190E00E94A80E8110F5CF222009F4CD
S1131D0042CEB60180E290E00E94A80E2A94F6CF5B
S1131D10F6018681978102C08FEF9FEF2B96E2E157
S1131D200C945E0FFC010590615070400110D8F7CF
S1131D30809590958E0F9F1F0895FC01615070400F
S1131D4001900110D8F7809590958E0F9F1F0895EC
S1131D500F931F93CF93DF93FB01238121FD03C0D6
S1131D608FEF9FEF2CC022FF16C04681578124813C
S1131D7035814217530744F4A081B1819D012F5F3F
S1131D803F4F318320838C93268137812F5F3F4FD0
S1131D903783268314C08B01EC01FB010084F18599
S1131DA0E02D0995892BE1F6D80116968D919C9129
S1131DB01797019617969C938E931697CE01DF91F1
S1131DC0CF911F910F910895FA01AA27283051F15C
S1131DD0203181F1E8946F936E7F6E5F7F4F8F4F58
S1131DE09F4FAF4FB1E03ED0B4E03CD0670F781FB7
S1131DF0891F9A1FA11D680F791F8A1F911DA11D9C
S1131E006A0F711D811D911DA11D20D009F46894D4
S1131E103F912AE0269F11243019305D3193DEF67C
S1131E20CF010895462F4770405D4193B3E00FD032
S1131E30C9F7F6CF462F4F70405D4A3318F0495D1D
S1131E4031FD4052419302D0A9F7EACFB4E0A69500
S1131E509795879577956795BA95C9F70097610522
S1131E60710508959B01AC010A2E06945795479578
S1131E7037952795BA95C9F7620F731F841F951F6D
S1131E80A01D08952F923F924F925F926F927F927E
S1131E908F929F92AF92BF92CF92DF92EF92FF9276
S1131EA00F931F93CF93DF93CDB7DEB7CA1BDB0B22
S1131EB00FB6F894DEBF0FBECDBF09942A883988C7
S1131EC048885F846E847D848C849B84AA84B984CE
S1131ED0C884DF80EE80FD800C811B81AA81B981DA
S1131EE0CE0FD11D0FB6F894DEBF0FBECDBFED01EE
S1091EF00895F894FFCFF1
S1131EF67F0100007F0100000000000200000000D6
S1131F066607000000000000000100000000000059
S1131F164D0700003C636861726163746572203A20
S1131F262000256300416464723A2025730A004147
S1131F366464723A2000626974706F733A20257380
S1131F460A00626974706F733A200062697476617C
S1131F566C3A2025730A0062697476616C3A200033
S1131F66556E6B6E6F776E207374617465210065B0
S1131F76727200556E6B6E6F776E20537461746562
S1131F86210000416E67697620416464726573734B
S1131F966500496E76616C6964206865782073749F
S1131FA672696E673A2025730A0054656D70206263
S1131FB67566666572206F766572666C6F7721202A
S1131FC6526573657474696E6720627566666572B8
S1131FD62E0025640050696E303A20000A496E745A
S1131FE6657272757074206F6E2045787465726EB2
S1131FF6616C2050696E20302E20436F756E743AE2
S11320062025640A000A536B69707065642063684E
S1132016617261637465722066726F6D20554152F8
S1132026543A2025630A004E756D626572206F6608
S113203620536B69707065642043686172616374D0
S10D20466572733A2025640A000055
S9030000FC
