S0250000683270643130313132345F50726F6A6563745F31335F31315F323032342E7372656387
S11300000C9460010C947D010C947D010C947D0191
S11300100C947D010C947D010C947D010C947D0164
S11300200C947D010C947D010C947D010C947D0154
S11300300C947D010C947D010C947D010C947D0144
S11300400C947D010C947D010C947D010C947D0134
S11300500C947D010C947D010C947D010C947D0124
S11300600C947D010C947D010C947D010C947D0114
S11300700C94CE060C947D010C947D010C947D01AE
S11300800C947D010C947D010C947D010C947D01F4
S11300900C947D010C947D010C947D010C947D01E4
S11300A00C947D010C947D010C947D010C947D01D4
S11300B00C947D01000000000081811881810007FB
S11300C0000700147F147F14242A7F2A12231308A4
S11300D0646236495522500005030000001C224189
S11300E0000041221C0014083E081408083E0808B9
S11300F00050300000080808080800606000002074
S1130100100804023E5149453E00427F40004261CE
S11301105149462141454B311814127F102745455A
S113012045393C4A49493001710905033649494971
S113013036064949291E00363600000056360000AE
S11301400814224100141414141400412214080247
S113015001510906324979413E7E1111117E7F49D0
S11301604949363E414141227F4141221C7F494950
S113017049417F090909013E4149497A7F08080834
S11301807F00417F41002040413F017F081422410C
S11301907F404040407F020C027F7F0408107F3E76
S11301A04141413E7F090909063E4151215E7F09D3
S11301B0192946464949493101017F01013F40401F
S11301C0403F1F2040201F3F4038403F6314081425
S11301D06307087008076151494543007F414100A6
S11301E002040810200041417F000402010204407F
S11301F040404040000102040020545454787F4899
S11302004444383844444420384444487F3854549F
S11302105418087E0901020C5252523E7F0804040D
S11302207800447D40002040443D007F1028440075
S113023000417F40007C041804787C08040478386A
S1130240444444387C14141408081414147C7C08A2
S11302500404084854545420043F4440203C404083
S1130260207C1C2040201C3C4030403C442810286A
S1130270440C5050503C4464544C440008364100F3
S113028000007F0000004136080010080810080034
S11302900000000011AE00A8013F2001004000D37F
S11302A00100A100C800DA011281017FA400A600A8
S11302B0D50180D901C2DB01208D01142E00AF00CD
S11302C011241FBECFEFD8E0DEBFCDBF12E0A0E007
S11302D0B1E0E0EEFBE102C005900D92AE31B10752
S11302E0D9F722E0AEE1B2E001C01D92A738B2070F
S11302F0E1F70E9485080C94EE0D0C940000CF9356
S1130300DF9300D0CDB7DEB78A838FEF89830E9455
S1130310640589838981882311F089810AC08A81CF
S11303200E949B0589838981882311F0898101C0FA
S113033080E00F900F90DF91CF910895CF93DF93DA
S113034000D0CDB7DEB78A838FEF898380E80E941F
S1130350C80589838981882311F089810AC08A812B
S11303600E94C80589838981882311F0898101C08D
S113037080E00F900F90DF91CF910895CF93DF939A
S1130380CDB7DEB7A0970FB6F894DEBF0FBECDBFD2
S113039088A384E992E09A8389838FEF8D8389818E
S11303A09A819C012F5F3F4F3A8329839F838E83D9
S11303B08E819F81FC018491888788858C830E942B
S11303C0420588A10E947F018D838D81882311F0CD
S11303D08D81CBC084EE0E949E018D838D81882304
S11303E011F08D81C2C080E090E0A0E8BFE38A8B69
S11303F09B8BAC8BBD8B20E030E04AE753E46A89E9
S11304007B898C899D890E944B0ADC01CB018E8BF0
S11304109F8BA88FB98F20E030E040E85FE36E89BE
S11304207F89888D998D0E94C50988232CF481E0E9
S113043090E09B8F8A8F3FC020E03FEF4FE757E467
S11304406E897F89888D998D0E94460A18164CF50D
S113045020E030E040E251E46A897B898C899D89FF
S11304600E944B0ADC01CB01BC01CD010E94CA09E8
S1130470DC01CB019B8F8A8F0FC089E190E09D8FB7
S11304808C8F8C8D9D8D0197F1F79D8F8C8F8A8D2C
S11304909B8D01979B8F8A8F8A8D9B8D892B69F702
S11304A014C06E897F89888D998D0E94CA09DC01E8
S11304B0CB019B8F8A8F8A8D9B8D9F8F8E8F8E8D84
S11304C09F8D0197F1F79F8F8E8F45C089819A8107
S11304D09C012F5F3F4F3A8329839A8789878985B7
S11304E09A85FC0184918B878B850E949E018D8364
S11304F08D81882311F08D8138C089819A819C0176
S11305002F5F3F4F3A8329839D878C878C859D85F8
S1130510FC0184918E878E858B8317C089819A8193
S11305209C012F5F3F4F3A832983988B8F878F8558
S11305309889FC018491898B89890E949E018D830D
S11305408D81882311F08D8110C08B819FEF980FCE
S11305509B83882319F78C819FEF980F9C838823B2
S113056009F0B4CF0E94F40580E0A0960FB6F89489
S1130570DEBF0FBECDBFDF91CF910895CF93DF9340
S113058000D01F92CDB7DEB78FEF8B838CE30E9430
S11305907F018B838B81882311F08B8160C081E282
S11305A00E949E018B838B81882311F08B8157C01D
S11305B080E00E949E018B838B81882311F08B81C4
S11305C04EC08FE70E949E018B838B81882311F09C
S11305D08B8145C010921F0210921E0282E20E947B
S11305E09E018B838B81882311F08B8138C080E03E
S11305F00E949E018B838B81882311F08B812FC0F5
S113060087E00E949E018B838B81882311F08B816C
S113061026C0109221021092200280E40E94C80594
S11306208B838B81882311F08B8119C01A821982E4
S11306300EC080E00E94C8058B838B81882311F053
S11306408B810DC089819A8101969A8389838981DE
S11306509A818115944068F30E94F40580E00F901C
S11306600F900F90DF91CF910895CF93DF9300D037
S113067000D01F92CDB7DEB78A836B834C832D8362
S11306808FEF89838CE30E947F018983898188238A
S113069011F0898147C081E20E949E01898389818A
S11306A0882311F089813EC08A810E949E0189833A
S11306B08981882311F0898135C08B810E949E0134
S11306C089838981882311F089812CC08A81882FAC
S11306D090E090931F0280931E0282E20E949E018A
S11306E089838981882311F089811CC08C810E94AF
S11306F09E0189838981882311F0898113C08D81AA
S11307000E949E0189838981882311F089810AC00E
S11307108C81882F90E090932102809320020E9484
S1130720F40580E00F900F900F900F900F90DF91E1
S1130730CF910895CF93DF9300D000D01F92CDB70F
S1130740DEB78C836D838FEF89838FE78A8387E09D
S11307508B832B814D816A818C810E94350389832F
S11307608981882311F0898101C080E00F900F9066
S11307700F900F900F90DF91CF910895CF93DF9357
S113078000D01F92CDB7DEB78A836B838FEF898346
S11307908A8188234CF58B81873008F582E090E0CC
S11307A090931F0280931E02809120029091210257
S11307B001969093210280932002809120029091CF
S11307C02102282F80911E0290911F02622F0E9405
S11307D09A0389838981882311F0898106C08B81DA
S11307E0873010F081E001C080E00F900F900F90EF
S11307F0DF91CF910895CF93DF93CDB7DEB72E97D6
S11308000FB6F894DEBF0FBECDBF8D876E878FEF16
S11308108B8319821A828E85882F90E08F70992796
S1130820892B09F068C08E85882F90E0807F9927F6
S1130830892B11F080E88A8380911E0290911F0217
S11308408B5F8C8380912002909121028D836D8136
S11308508C810E94BE038B838B81882311F08B8152
S1130860DBC08CE30E947F018B838B81882311F092
S11308708B81D2C080E40E94C8058B838B8188233E
S1130880B1F18B81C9C08D85882F90E09C012052E5
S11308903109898191E0980F9983482F50E0C9016B
S11308A0880F991F880F991F820F931F840F951F1C
S11308B08C549F4F9F838E838E819F81FC018491F2
S11308C088878885898799858A81892B0E94C805AC
S11308D08B838B81882311F08B819EC080911E02B3
S11308E090911F02019690931F0280931E028981AA
S11308F0853048F27CC08E85882F90E08F709927D0
S1130900019709F074C08E85882F90E0807F992725
S1130910892B11F080E88A8380911E0290911F0236
S1130920865F8C8380912002909121028D836D815A
S11309308C810E94BE038B838B81882311F08B8171
S11309406BC08CE30E947F018B838B81882311F021
S11309508B8162C080E40E94C8058B838B818823CD
S113096009F441C08B8158C08D85882F90E09C018B
S113097020523109898191E0980F9983482F50E0E2
S1130980C901880F991F880F991F820F931F840F25
S1130990951F8C549F4F9B878A878A859B85FC0172
S11309A084918C878C85898799858A81892B0E947B
S11309B0C8058B838B81882311F08B812DC0998589
S11309C08A81892B0E94C8058B838B81882311F02F
S11309D08B8122C080911E0290911F0202969093F7
S11309E01F0280931E028981853008F4BDCF8A815D
S11309F00E94C8058B838B81882311F08B810CC0E6
S1130A0080911E0290911F02019690931F02809381
S1130A101E020E94F40580E02E960FB6F894DEBF05
S1130A200FBECDBFDF91CF910895CF93DF9300D058
S1130A3000D0CDB7DEB79B838A836C8319820FC045
S1130A40898191E0980F9983882F90E02A813B81D6
S1130A50820F931FFC0180816C810E94FB038981BA
S1130A60882F90E02A813B81820F931FFC018081B3
S1130A70882331F780E00F900F900F900F90DF9153
S1130A80CF910895CF93DF93CDB7DEB788EB90E095
S1130A9022E0FC01208389EB90E0FC018081882F17
S1130AA090E082709927AC01416089EB90E029EBDA
S1130AB030E0F9012081322F242F232BFC012083E5
S1130AC00000DF91CF910895CF93DF93CDB7DEB7C8
S1130AD089EB90E029EB30E0F90120812775FC01D6
S1130AE020838CEB90E024EAFC01208300008CEB53
S1130AF090E0FC0180818823D4F789EB90E0FC012D
S1130B008081882F90E0887F9927089781F089EB6E
S1130B1090E0FC018081882F90E0887F992740979E
S1130B2031F089EB90E0FC018081887F01C080E096
S1130B30DF91CF910895CF93DF931F92CDB7DEB7A6
S1130B4089838BEB90E02981220FFC0120838CEBBD
S1130B5090E024E8FC01208300008CEB90E0FC0191
S1130B6080818823D4F789EB90E0FC018081882F71
S1130B7090E0887F9927489731F089EB90E0FC0159
S1130B808081887F01C080E00F90DF91CF9108952C
S1130B90CF93DF931F92CDB7DEB789838BEB90E0C1
S1130BA02981FC0120838CEB90E024E8FC01208364
S1130BB000008CEB90E0FC0180818823D4F789EB62
S1130BC090E0FC018081882F90E0887F99278897A6
S1130BD031F089EB90E0FC018081887F01C080E0E6
S1130BE00F90DF91CF910895CF93DF93CDB7DEB708
S1130BF08CEB90E024E9FC0120830000DF91CF918D
S1130C000895CF93DF9300D0CDB7DEB79A8389835D
S1130C1089819A81909323028093220200000F908D
S1130C200F90DF91CF910895CF93DF93CDB7DEB7C7
S1130C308CEC90E027E6FC0120838DEC90E0FC0135
S1130C40108288EC90E0FC01108289EC90E028E1AD
S1130C50FC0120838AEC90E026E0FC0120830E94C2
S1130C6037060E9445060000DF91CF910895CF9387
S1130C70DF93CDB7DEB780E091E090938402809358
S1130C8083020000DF91CF910895CF93DF93CDB716
S1130C90DEB78EE091E0909382028093810200009F
S1130CA0DF91CF910895CF93DF9300D0CDB7DEB716
S1130CB09A838983000088EC90E0FC01808188237A
S1130CC0D4F78EEC90E0FC018081882F90E00F90A7
S1130CD00F90DF91CF910895CF93DF9300D01F92AF
S1130CE0CDB7DEB789837B836A83000088EC90E00C
S1130CF0FC018081882F90E080729927892BB1F3C1
S1130D008EEC90E02981FC01208380E090E00F903C
S1130D100F900F90DF91CF910895CF93DF93CDB7CC
S1130D20DEB789EC90E029EC30E0F90120812068FD
S1130D30FC0120830000DF91CF910895CF93DF93CE
S1130D4000D0CDB7DEB79A83898389819A81FC016B
S1130D508081813430F089819A81FC0180818E35D3
S1130D6060F089819A81FC018081813688F08981D3
S1130D709A81FC0180818E3758F489819A81FC0123
S1130D80908180E2292F282789819A81FC01208380
S1130D9000000F900F90DF91CF9108951F920F9252
S1130DA000905F000F9211242F933F934F935F9312
S1130DB06F937F938F939F93AF93BF93EF93FF931F
S1130DC0CF93DF931F92CDB7DEB78EEC90E0FC019A
S1130DD08081898320912202309123028981F90143
S1130DE00995CE0101960E949E068EEC90E0298121
S1130DF0FC012083789400000F90DF91CF91FF9144
S1130E00EF91BF91AF919F918F917F916F915F917E
S1130E104F913F912F910F9000925F000F901F9080
S1130E201895CF93DF931F92CDB7DEB78983809156
S1130E306602882F90E001968F739078992324F4AA
S1130E400197806C9F6F01969C0180916702882FA7
S1130E5090E02817390729F580916702882F90E0E0
S1130E608A5D9D4FFC01808180936B0281E08093B9
S1130E706A028091680290916902019690936902D6
S1130E808093680280916702882F90E001968F73A7
S1130E909078992324F40197806C9F6F0196809336
S1130EA0670280916602882F90E08A5D9D4F2981B8
S1130EB0FC01208380916602882F90E001968F7355
S1130EC09078992324F40197806C9F6F0196809306
S1130ED0660281E08093240200000F90DF91CF919D
S1130EE00895CF93DF9300D000D0CDB7DEB79A83B7
S1130EF089837C836B838091250291E0980F909382
S1130F002502682F80E00E949A038B819C8160E017
S1130F100E94150589819A8160E00E9415058091DF
S1130F20250287708093250200000F900F900F9088
S1130F300F90DF91CF910895CF93DF931F92CDB798
S1130F40DEB79091670280916602981711F480E0F1
S1130F5019C080916702882F90E08A5D9D4FFC0143
S1130F608081898380916702882F90E001968F7336
S1130F709078992324F40197806C9F6F0196809355
S1130F80670289810F90DF91CF910895CF93DF930A
S1130F90CDB7DEB710927C0210926C020000DF9194
S1130FA0CF910895CF93DF9300D0CDB7DEB79A8366
S1130FB089832BC089819A81FC018081803330F040
S1130FC089819A81FC0180818A33D0F089819A8158
S1130FD0FC018081813430F089819A81FC01808117
S1130FE0873470F089819A81FC018081813630F0E8
S1130FF089819A81FC018081873610F080E00CC0E1
S113100089819A8101969A83898389819A81FC01D5
S11310108081882379F681E00F900F90DF91CF9142
S11310200895CF93DF9300D000D000D0CDB7DEB7C2
S11310309C838B836D834E838B819C8101979A83E0
S113104089838E81882359F18B819C81FC01808165
S1131050482F8D81282F30E081E090E002C0880F76
S1131060991F2A95E2F7842B282F8B819C81FC0100
S1131070208389819A81FC018081482F8D81282FCA
S113108030E081E090E002C0880F991F2A95E2F7D2
S1131090842B282F89819A81FC0120832CC08B8189
S11310A09C81FC018081482F8D81282F30E081E0D4
S11310B090E002C0880F991F2A95E2F78095842357
S11310C0282F8B819C81FC01208389819A81FC01DA
S11310D08081482F8D81282F30E081E090E002C08C
S11310E0880F991F2A95E2F780958423282F8981F8
S11310F09A81FC012083000026960FB6F894DEBF87
S11311000FBECDBFDF91CF910895CF93DF9300D071
S11311101F92CDB7DEB7198281E197E00E940106E4
S11311200E9414060E948D06789480911C010E94EE
S1131130BE010E94BE0280912402882309F4F5C0F6
S1131140109224020E949C078A838A818A3309F0C0
S1131150CAC08CE692E00E94D207882309F4ACC08E
S11311608981882F90E081309105C1F18230910509
S113117009F456C0892B09F085C08CE692E0892FCA
S11311808F938CE692E08F938DE291E0892F8F9379
S11311908DE291E08F930E94E00A0F900F900F90E0
S11311A00F9067E371E08CE692E00E94710781E0A2
S11311B0898380916C02882F90E0C097982F929534
S11311C0907F80916D02890F80538B838B81882F50
S11311D090E090937F0280937E0282C08CE692E03E
S11311E0892F8F938CE692E08F938EE391E0892F81
S11311F08F938EE391E08F930E94E00A0F900F90FB
S11312000F900F906AE471E08CE692E00E947107FF
S113121082E0898380916C02805380937D0260C058
S11312208CE692E0892F8F938CE692E08F9383E58E
S113123091E0892F8F9383E591E08F930E94E00AD8
S11312400F900F900F900F906FE571E08CE692E095
S11312500E947107198280916C02813321F481E02C
S11312608093800202C0109280023091800220910B
S11312707D0280917E0290917F02432F622F0E9413
S113128011082EC088E691E0892F8F9388E691E0BB
S11312908F930E94E00A0F900F9067E771E08BE74D
S11312A091E00E94710719826AE871E08BE891E08D
S11312B00E947107000014C08CE692E0892F8F937E
S11312C08CE692E08F938AE991E0892F8F938AE9E3
S11312D091E08F930E94E00A0F900F900F900F906F
S11312E00E94C60722C080917C028F30C0F4809196
S11312F07C02982F9F5F90937C02082E000C990B20
S113130084599D4F2A81FC01208380917C02082E00
S1131310000C990B84599D4FFC01108206C082EB8E
S113132091E00E94F60A0E94C60780916A0288230F
S113133009F401CF10926A0280916B02882F90E029
S1131340292F2F938F938AED91E0892F8F938AED24
S113135091E08F930E94E00A0F900F900F900F90EE
S11313608091680290916902292F2F938F938BEFBC
S113137091E0892F8F938BEF91E08F930E94E00A85
S11313800F900F900F900F90D6CE0E94F90908F499
S113139081E008950E94250A88F09F5798F0B92F9C
S11313A09927B751B0F0E1F0660F771F881F991F96
S11313B01AF0BA95C9F714C0B13091F00E943F0AEF
S11313C0B1E008950C943F0A672F782F8827B85FFF
S11313D039F0B93FCCF3869577956795B395D9F7EE
S11313E03EF490958095709561957F4F8F4F9F4FF8
S11313F00895990F0008550FAA0BE0E8FEEF1616A2
S11314001706E807F907C0F012161306E407F507F4
S113141098F0621B730B840B950B39F40A2661F068
S1131420232B242B252B21F408950A2609F4A1400B
S1131430A6958FEF811D811D089557FD9058440F87
S1131440551F59F05F3F71F04795880F97FB991F1F
S113145061F09F3F79F087950895121613061406DC
S1131460551FF2CF4695F1DF08C016161706180669
S1131470991FF1CF86957105610508940895E89444
S1131480BB2766277727CB0197F908950E94F909AE
S113149008F48FEF08950E945E0A0C94CF0A0E940C
S11314A0C10A38F00E94C80A20F0952311F00C9468
S11314B0B80A0C94BE0A11240C94400A0E941D0A16
S11314C070F3959FC1F3950F50E0551F629FF00193
S11314D0729FBB27F00DB11D639FAA27F00DB11DAC
S11314E0AA1F649F6627B00DA11D661F829F222735
S11314F0B00DA11D621F739FB00DA11D621F839FBC
S1131500A00D611D221F749F3327A00D611D231F91
S1131510849F600D211D822F762F6A2F11249F57DF
S113152050409AF0F1F088234AF0EE0FFF1FBB1FE2
S1131530661F771F881F91505040A9F79E3F5105A1
S113154080F00C94B80A0C94400A5F3FE4F3983E90
S1131550D4F3869577956795B795F795E7959F5F4B
S1131560C1F7FE2B880F911D9695879597F90895DD
S113157097F99F6780E870E060E008959FEF80EC42
S1131580089500240A9416161706180609060895E5
S113159000240A9412161306140605060895092E4B
S11315A00394000C11F4882352F0BB0F40F4BF2BBA
S11315B011F460FF04C06F5F7F4F8F4F9F4F0895FA
S11315C0A0E0B0E0E6EEFAE00C94C70DAE014B5F8C
S11315D05F4FFA0161917191AF0180918302909103
S11315E084020E94260BE2E00C94E30D0F931F93F8
S11315F0CF93DF93E0918302F0918402238121FF52
S11316001BC08C01D0E0C0E0F80181918F01609192
S1131610830270918402DB011896ED91FC91199775
S1131620882331F00995892B79F3DFEFCFEFECCFE5
S11316308AE00995892B19F08FEF9FEF02C08D2F57
S11316409C2FDF91CF911F910F910895ABE0B0E0F3
S1131650ECE2FBE00C94B70D6C017B018A01FC0108
S113166017821682838181FFCCC1CE0101963C0191
S1131670F6019381F70193FD859193FF81917F0199
S1131680882309F4BAC1853239F493FD859193FF17
S113169081917F01853229F4B60190E00E941D0DED
S11316A0E7CF912C212C312CFFE1F315D8F08B32AC
S11316B079F038F4803279F08332A1F4232D20615B
S11316C01DC08D3261F0803369F4232D216016C072
S11316D0832D8260382EE32DE4603E2E2AC0F32D44
S11316E0F8601DC037FC2DC020ED280F2A3040F0D3
S11316F08E32B9F436FC81C1232D2064322E19C0F8
S113170036FE06C08AE0989E200D1124922E11C048
S1131710EAE02E9E200D1124222EF32DF0623F2E9E
S113172008C08C3621F4832D8068382E02C0883698
S113173041F4F70193FD859193FF81917F0181111C
S1131740B3CF982F9F7D9554933028F40C5F1F4F8F
S11317509FE399830DC0833631F0833771F083356D
S113176009F059C021C0F801808189830E5F1F4FA1
S113177088248394912C530113C02801F2E04F0E66
S1131780511CF801A080B18036FE03C0692D70E0C1
S113179002C06FEF7FEFC5010E94120D4C01820160
S11317A0F32DFF773F2E16C0280122E0420E511C74
S11317B0F801A080B18036FE03C0692D70E002C03C
S11317C06FEF7FEFC5010E94070D4C01F32DF06808
S11317D03F2E820133FC1BC0822D90E088169906AF
S11317E0B0F4B60180E290E00E941D0D2A94F4CF7B
S11317F0F50137FC859137FE81915F01B60190E0D8
S11318000E941D0D21102A9421E0821A910881144E
S1131810910471F7E8C0843611F0893641F5F80176
S113182037FE07C060817181828193810C5F1F4FF5
S113183008C060817181072E000C880B990B0E5F24
S11318401F4FF32DFF763F2E97FF09C0909580958B
S1131850709561957F4F8F4F9F4FF0683F2E2AE020
S113186030E0A3010E94590D882E861845C08537A3
S113187031F4232D2F7EB22E2AE030E025C0932DA3
S1131880997FB92E8F36C1F018F4883579F0B5C038
S1131890803719F0883721F0B0C0E92FE061BE2EFF
S11318A0B4FE0DC0FB2DF460BF2E09C034FE0AC087
S11318B0292F2660B22E06C028E030E005C020E1C2
S11318C030E002C020E132E0F801B7FE07C06081D9
S11318D07181828193810C5F1F4F06C06081718189
S11318E080E090E00E5F1F4FA3010E94590D882EE7
S11318F08618FB2DFF773F2E36FE0DC0232D2E7F3D
S1131900A22E891458F434FE0BC032FC09C0832D76
S11319108E7EA82E05C0B82CA32C03C0B82C01C001
S1131920B92CA4FE0FC0FE01E80DF11D80818033A7
S113193021F49A2D997EA92E09C0A2FE06C0B39463
S1131940B39404C08A2D867809F0B394A3FC11C023
S1131950A0FE06C0B21488F4280C922C9B180EC06A
S1131960B21460F4B60180E290E00E941D0DB394BD
S1131970F7CFB21418F42B1802C0982C212CA4FE13
S113198010C0B60180E390E00E941D0DA2FE17C0B6
S1131990A1FC03C088E790E002C088E590E0B601AE
S11319A00CC08A2D867859F0A1FE02C08BE201C0DA
S11319B080E2A7FC8DE2B60190E00E941D0D89141F
S11319C038F4B60180E390E00E941D0D9A94F7CF9D
S11319D08A94F301E80DF11D8081B60190E00E9424
S11319E01D0D8110F5CF222009F442CEB60180E20C
S11319F090E00E941D0D2A94F6CFF601868197810E
S1131A0002C08FEF9FEF2B96E2E10C94D30DFC0103
S1131A100590615070400110D8F7809590958E0F15
S1131A209F1F0895FC016150704001900110D8F788
S1131A30809590958E0F9F1F08950F931F93CF93BA
S1131A40DF93FB01238121FD03C08FEF9FEF2CC0A7
S1131A5022FF16C0468157812481358142175307DE
S1131A6044F4A081B1819D012F5F3F4F31832083D6
S1131A708C93268137812F5F3F4F3783268314C091
S1131A808B01EC01FB010084F185E02D0995892B84
S1131A90E1F6D80116968D919C91179701961796A9
S1131AA09C938E931697CE01DF91CF911F910F9146
S1131AB00895FA01AA27283051F1203181F1E894E0
S1131AC06F936E7F6E5F7F4F8F4F9F4FAF4FB1E02D
S1131AD03ED0B4E03CD0670F781F891F9A1FA11D28
S1131AE0680F791F8A1F911DA11D6A0F711D811D29
S1131AF0911DA11D20D009F468943F912AE0269FEE
S1131B0011243019305D3193DEF6CF010895462F4C
S1131B104770405D4193B3E00FD0C9F7F6CF462F2D
S1131B204F70405D4A3318F0495D31FD4052419396
S1131B3002D0A9F7EACFB4E0A69597958795779553
S1131B406795BA95C9F700976105710508959B01DA
S1131B50AC010A2E06945795479537952795BA9563
S1131B60C9F7620F731F841F951FA01D08952F923C
S1131B703F924F925F926F927F928F929F92AF9219
S1131B80BF92CF92DF92EF92FF920F931F93CF9366
S1131B90DF93CDB7DEB7CA1BDB0B0FB6F894DEBFFD
S1131BA00FBECDBF09942A88398848885F846E8423
S1131BB07D848C849B84AA84B984C884DF80EE806D
S1131BC0FD800C811B81AA81B981CE0FD11D0FB676
S1131BD0F894DEBF0FBECDBFED010895F894FFCF9A
S1131BE000000002000000006C060000000000007D
S1131BF00001000000000000530600003C6368611F
S1131C00726163746572203A200025630041646444
S1131C10723A2025730A00416464723A20006269B2
S1131C2074706F733A2025730A00626974706F735D
S1131C303A200062697476616C3A2025730A006266
S1131C40697476616C3A2000556E6B6E6F776E2006
S1131C507374617465210065727200556E6B6E6FEA
S1131C60776E205374617465210000416E67697654
S1131C7020416464726573736500496E76616C69B2
S1131C80642068657820737472696E673A202573DE
S1131C900A0054656D7020627566666572206F7601
S1131CA06572666C6F772120526573657474696E12
S1131CB067206275666665722E000A536B697070E0
S1131CC06564206368617261637465722066726F13
S1131CD06D20556172742025630A004E756D62652E
S1131CE072206F6620536B6970706564204368616D
S1111CF072616374657273203A2025640A00E1
S9030000FC
